:020000040000fa
:08000000ee0a040000000000fc
:020000040000fa
:10020000889fbe008a9fbe00010578000100e000c3
:100210000400350008003c000000e000200032002f
:100220000500370060001000e080180002003b006d
:1002300001f02c001a0037000004be006011b80065
:100240006b0920000982cf00020039000882cf002c
:100250000441b000694252000e00320008003b0029
:1002600082817100610164008904d1000884d30097
:100270008b05e8000442e800f9ff3a00050037006a
:100280000804440089844c008b05e9000442e9001d
:10029000fbff3a00190107000af0a70001f0a000d7
:1002a0004f05be004f04be000000060003f0a20090
:1002b000889fbe008a9fbe008c1f78003501070012
:1002c0003c0133006450e1004f0032006420e10043
:1002d0005200320003826c0007003b000905d00089
:1002e0000306d000820f54000c065d0002003900a6
:1002f00002003200890178000306780085825500eb
:1003000004003d000003fd008103fd008502ea00ba
:100310008b854200840f720002003b0060001000d9
:10032000e08018006011b8000005eb007a28e100b9
:100330000a00390006007800c75ddd00f707b2004b
:10034000878075002d003700828171000a017800d6
:10035000610560008180d1000080d3008502e90042
:10036000f9ff3b00060440008784480002003b0080
:1003700060041400e0841c000988a3000700320018
:100380008a81710082817100610164008904d10059
:100390000884d3008b05e800170037000978a30014
:1003a00013003a000b00e000130034008b05e90055
:1003b0000804440089844c000a4474000978a300ae
:1003c0000d003a000b00e000070034008b05e90047
:1003d0000804440089844c0001003a000b0020000e
:1003e0000978a300f7ff32000001eb00020037009c
:1003f000828171000a017800c00007000cf0a7009c
:1004000001f0a000f40037006420e10002003a008f
:10041000838f6c00f40033000801be000200be00b0
:10042000ed003700889fbe008a9fbe008c1f7800b9
:10043000d8000700df00330003866c006450e10041
:10044000240032006420e100270032006150e10006
:10045000220032006120e100210032008b85420041
:10046000eb07b1000134b800003ab80008044200bc
:1004700089844a00013ab8000030b8008880400002
:1004800009014a0004003300000040008180480058
:10049000020149008b05e900c909dd0083017000f4
:1004a0000100320013002000c814de004814dd00f3
:1004b0004709de001200b200c808de0008847000a0
:1004c0008e00070001f0a1000cf0a70001f0a000d1
:1004d000c10037006120e100c30032000801be0006
:1004e0000200be00f7ff37006150e100fcff3a0058
:1004f000bd003700889fbe008a9fbe008c1f780019
:10050000a4000700ab00330003866c006450e100d8
:100510002e0032006420e100330032006150e1001f
:100520002f0032006120e100310032008585550046
:10053000eb07b00009002000080420000500370088
:100540000804440089844c000a003100060343007b
:1005500087834b000001530081815b00f8ff33006b
:100560000203be000800a0000804440089844c0077
:10057000f6ff3900c639dd00830173000100320047
:10058000130020008904d1000884d3000998a30037
:10059000050032000800a7000300a0008904d10074
:1005a0000884d3008b05e8008904d1000884d300b7
:1005b0000001eb000281d2005000070001f0a10011
:1005c0000cf0a70001f0a000830037006420e100d8
:1005d000850032000801be000200be00f7ff3700b0
:1005e0006120e100800032006000b800f3ff3700b6
:1005f0000000200001f82700f0ff3700f4ff2f0073
:100600007c003700140020007a0037000001be0093
:10061000930007000470a70003f0a1006509b10072
:10062000160032000d0035006828e1000600350094
:10063000f0ff2f00f1ff27000300e00013003b0054
:1006400001002800000005000000400081804800f3
:100650008502e900fcff3a0008003700f88f4200ed
:1006600002003c008000eb00000005008100d1008a
:100670000080d3008502e800fcff3a000300e000a0
:1006800002003b0060001000e0801800000006003f
:100690000001be00720007000470a70003f0a10073
:1006a00003f8a30013003a006509b10010003200fe
:1006b000090035006928e10002003500010028002a
:1006c0000000050000004000818048008502e9002c
:1006d000fcff3a0000000600f88f420005003500dc
:1006e0008100d1000080d3008502e800fcff3a00c1
:1006f000000006008000eb000000050081002000e3
:10070000618055000b003d000b00200061fe2f00b2
:100710000100e1001d00340082817100610164006c
:100720008904d1000884d3000000e800faff3a00f1
:10073000710020006100640003007000020060008e
:100740000900320061044400e0844c000988a500df
:10075000050032008b05e8006808e10002003a005d
:100760008904d1000884d300f20f20000258e10070
:1007700005003d00c75ddd00f907b2008980750006
:1007800008007800000006000bf827008b007800b6
:10079000000005000004be00310007000003be0099
:1007a0000405be000200be002d000700844f750046
:1007b000000006000200be006450e10005003600a3
:1007c0006420e100020036000968a30001003a003d
:1007d0000800be000160a0004f0678004f05be0073
:1007e0004f04be0000000600f0ff2f00f1ff2700bd
:1007f000f9ff3700889fbe008a9fbe00841f7800e3
:10080000e4ff07004f00780011003300f0ff2f00d5
:10081000838f6c0006003b00040565000a00a700fa
:100820000800370009f0a60010002000080037007b
:10083000820f5400838f5c000300390010002000f9
:1008400001003e000000200009f0a7000000ea00bf
:100850004f05be004f04be000000e000000006008f
:10086000c70ade00f107b200f50fb200080032003f
:10087000e1cf4200020032000170a0002400050018
:10088000810f7000010032000408050044000500db
:10089000810f700002003a00140005008502e90093
:1008a0000000400081c04800fcff3b000170a00038
:1008b000240005000000fa00ff0007000b010700fc
:1008c0001a0107008f010700a00020008041880066
:1008d000604180007141800002002000031224006a
:1008e0001e0107007f010700804180008000eb00af
:1008f00000030700ffff37003600f800809fbe00ae
:10090000829fbe00849fbe00869fbe003400f80018
:1009100000c0b300a00188000000fa0088010700b1
:10092000bf0107000080fa003400f9004f03be0049
:100930004f02be004f01be004f00be003600f9005e
:10094000004006003600f800809fbe00829fbe0077
:10095000849fbe00869fbe003400f80000c0b30034
:10096000a00188000000fa00e0010700e10f50003c
:1009700001003a00f20207000080fa003400f9009a
:100980004f03be004f02be004f01be004f00be002d
:100990003600f900004006000000fa00d30107000d
:1009a0000000e00011003a008141800000052000b5
:1009b000808f500003003c00804180006a004000ae
:1009c0008041880080418000cf80de000cfe07005f
:1009d0000001be00604180007141800011010700ec
:1009e000804180008000eb00c20207000080fa0016
:1009f000000006000000fa00bc0107000000e00053
:100a000010003a0080418000ea0f500003003400db
:100a1000804180006a005000804188008041800051
:100a2000cf80de00f6fd07000001be0060418000bf
:100a300071418000fb000700804180008000eb00d6
:100a4000ac0207000080fa00000006000000fa0077
:100a5000a60107000000e00011003a00814180007b
:100a600090052000808f500003003c0080418000f2
:100a70000000e8008041880080418000cf80de00d7
:100a8000dffd07000001be00604180007141800071
:100a9000e4000700804180008000eb009502070021
:100aa0000080fa00000006000000fa008f01070035
:100ab0000000e00010003a0080418000e10f50008b
:100ac00003003400804180000000e900804188007c
:100ad00080418000cf80de00c9fd07000001be001c
:100ae0006041800071418000ce000700804180009d
:100af0008000eb007f0207000080fa000000060083
:100b00000000fa000080fa00000006000000fa0071
:100b10000080fa00000006000000fa000000250036
:100b2000316c240060418800714188008041800060
:100b3000cf80de00b2fd07000001be0060418000f2
:100b400071418000b7000700804180008000eb0009
:100b5000680207000080fa00000006000000fa00aa
:100b600000002400c16924006041880071418800b0
:100b700080418000cf80de00a1fd07000001be00a3
:100b80006041800071418000a60007008041800024
:100b90008000eb00570207000080fa00000006000a
:100ba0000800fa00881f7800181480006140b9001e
:100bb00093fd070020079800310798000800e00027
:100bc00007003d0002002000037824002e00900062
:100bd000be009000b6fd070020079800310798007e
:100be00002002000832c24002e009000be00900004
:100bf0000cfe070002002c00f34724003dfe070016
:100c0000008fbe0002002000432b24001e00be0007
:100c10007afe07000000e00001003c0003003700fe
:100c200000002000412b2400008fbe008041800086
:100c30006a004000cf80de0071fd07001e01be008b
:100c40006efe07000000e00001003c0014003700c9
:100c5000804180006a005000cf80de0068fd070000
:100c60001e01be0067fe07000000e0000100350025
:100c70000b00370060418000714180001e01be0002
:100c8000680007001e00be0060fe07008000eb0049
:100c9000180207001e00be005cfe070080418800ad
:100ca0004f0478000080fa00000006000000fa00ff
:100cb0000080fa00000006000000fa00f0072000a3
:100cc000301688000080eb0060168800c00020000d
:100cd000901688000080eb00c0168800c00020003d
:100ce000f01688000080fa00000006000000fa00fc
:100cf00081e0a900710920009140780080cfb30005
:100d000000c060000014a00097e0b7009109200027
:100d100091407800f0c8b30000c060000044a0001b
:100d200099e0b7000080fa00000006000000fa0019
:100d300000032000800888000000eb0030088800d5
:100d4000e0472000600888008cc0a80084c0a9008b
:100d500011e1a8000080fa00000006000c00fa0073
:100d6000881f7800008fbe00220798003307980084
:100d700010012000400e88000000eb00500e88009b
:100d80000000eb00000e88001e01be0000a22e0035
:100d900001be2400d7fd07000200200003f8230055
:100da00042fd07003afe0700200e8800280e800052
:100db0006140b90012fd07004007980051079800f4
:100dc0000800e00007003d00020020000378240036
:100dd0004e009000de00900035fd070040079800af
:100de000510798002e019000be0190004e00900027
:100df000de0090008bfd0700020020008324240009
:100e0000bcfd07000200200003f8230028fd0700b6
:100e10001ffe0700b00e88004f0478000080fa0023
:100e2000000006000c00fa00881f7800008fbe004a
:100e3000220798003307980010012000400e880018
:100e40000000eb00500e88001e01be0000a22e0024
:100e500001be2400a7fd07000200200003f82300c4
:100e600012fd07000afe0700200e8800280e8000f1
:100e70006140b900e2fc0700400798005107980064
:100e80000800e00007003d00020020000378240075
:100e90004e009000de00900005fd0700400798001e
:100ea000510798002e019000be0190004e00900066
:100eb000de0090005bfd0700020020008324240078
:100ec0008cfd07000200200003f82300f8fc070057
:100ed000effd0700b00e88004f0478000080fa0094
:100ee000000006000000fa00c1e1a8000080fa003e
:100ef000000006000000fa00c1e1a9000080fa002d
:100f0000000006000000fa003000200050158800a4
:100f10001000200030158800c01f200040158800f8
:100f2000f0f3210020158800002020001015880013
:100f3000c00e2800001588000080fa00000006009e
:100f40000000fa00cfc2bf0001c8b300014060003a
:100f50000004e00007003200204180000000e000b3
:100f600006003a008cfe0700100020002041880097
:100f7000020037000000eb0020418800cfc2bf0014
:100f80000044b2000004e00007003200304180005d
:100f90000000e00006003a0096fe07001000200066
:100fa00030418800020037000000eb00304188002b
:100fb000cfc2bf000042b2000004e00007003200d0
:100fc000404180000000e00006003a009ffe07005c
:100fd0001000200040418800020037000000eb00b4
:100fe00040418800dbc2bf00614060000004e000b7
:100ff00007003200504180000000e00006003a0087
:10100000a9fe0700100020005041880002003700b0
:101010000000eb00504188000080fa00000006004c
:101020000000fa00d4c2bf00684060000004e00085
:1010300006003200904180000000e00003003a000a
:101040001000200090418800adfe0700d4c2bf0010
:10105000684060000004e00006003a009041800013
:10106000e10f500003003a000000eb0090418800bf
:10107000a6fe0700d4c2bf00644060000004e00088
:1010800006003200a04180000000e00003003a00aa
:1010900010002000a04188009ffe0700d4c2bf00be
:1010a000644060000004e00006003a00a0418000b7
:1010b000e10f500003003a000000eb00a04188005f
:1010c000a6fe070090418000e10f500001003a00a9
:1010d000b3fe0700a0418000e10f500001003a007c
:1010e000f2fe07000080fa00000006000000fa008f
:1010f000904180000080fa00000006000000fa0025
:10110000a04180000080fa00000006000e00fa00f6
:10111000000f780011079800220798001e00780041
:101120006101b9003207980043079800f0002000e1
:10113000010020003e019000ce019000800f510080
:10114000818f590062003e003e009000ce0090006a
:10115000006001000f003700130037001700370050
:101160001b0037001f00370023003700270037001f
:101170002b0037002f0037003300370037003700cf
:101180003b0037003f00370043003700470037007f
:101190004b003700cae2a900cb02a900d602a90081
:1011a000d622a9004a003700cae2a900cb02a90052
:1011b000d602a900d622a80045003700cae2a9003d
:1011c000cb02a900d602a800d622a9004000370011
:1011d000cae2a900cb02a900d602a800d622a80024
:1011e0003b003700cae2a900cb02a800d602a90042
:1011f000d622a90036003700cae2a900cb02a80017
:10120000d602a900d622a80031003700cae2a90000
:10121000cb02a800d602a800d622a9002c003700d5
:10122000cae2a900cb02a800d602a800d622a800d4
:1012300027003700cae2a800cb02a900d602a90005
:10124000d622a90022003700cae2a800cb02a900da
:10125000d602a900d622a8001d003700cae2a800c5
:10126000cb02a900d602a800d622a9001800370098
:10127000cae2a800cb02a900d602a800d622a80084
:1012800013003700cae2a800cb02a800d602a900ca
:10129000d622a9000e003700cae2a800cb02a8009f
:1012a000d602a900d622a80009003700cae2a80089
:1012b000cb02a800d602a800d622a900040037005d
:1012c000cae2a800cb02a800d602a800d622a80035
:1012d0001e0090000000e00002003a00e2c2a800f8
:1012e00001003700e2c2a9002e0090006101b900a0
:1012f0005207980063079800f000200001002000ca
:101300005e019000ee019000800f5100818f590026
:1013100062003e005e009000ee0090000060010060
:101320000f00370013003700170037001b0037008d
:101330001f00370023003700270037002b0037003d
:101340002f00370033003700370037003b003700ed
:101350003f00370043003700470037004b0037009d
:10136000e2a2a900e282a900e222a900e202a90009
:101370004a003700e2a2a900e282a900e222a90005
:10138000e202a80045003700e2a2a900e282a9001b
:10139000e222a800e202a90040003700e2a2a90070
:1013a000e282a900e222a800e202a8003b00370086
:1013b000e2a2a900e282a800e222a900e202a900ba
:1013c00036003700e2a2a900e282a800e222a900ca
:1013d000e202a80031003700e2a2a900e282a800e0
:1013e000e222a800e202a9002c003700e2a2a90034
:1013f000e282a800e222a800e202a800270037004b
:10140000e2a2a800e282a900e222a900e202a90069
:1014100022003700e2a2a800e282a900e222a9008d
:10142000e202a8001d003700e2a2a800e282a900a3
:10143000e222a800e202a90018003700e2a2a800f8
:10144000e282a900e222a800e202a800130037000d
:10145000e2a2a800e282a800e222a900e202a9001a
:101460000e003700e2a2a800e282a800e222a90052
:10147000e202a80009003700e2a2a800e282a80068
:10148000e222a800e202a90004003700e2a2a800bc
:10149000e282a800e222a800e202a8000080fa008e
:1014a000000006000c00fa00500798005e00900053
:1014b000a2002000110009000200d8004007980097
:1014c0004e0090006a00b900800078005e00900035
:1014d00001005000300798004e009000c400dd006d
:1014e0003e009000008f40001e0078000080fa004f
:1014f000000006000800fa00200798003107980055
:101500002e009000e7ff070080007800000f200009
:10151000008060004480de00100798002e009000dc
:10152000e0ff07006f0f60001e017800be00900012
:101530001e009000f5fe07000080fa000000060083
:101540000400fa00881f7800181480006140b90078
:101550002bfb0700008fbe000800e00005003d00e7
:1015600002002000037824001e00be0050fb07008c
:10157000008fbe0002002000832c24001e00be004d
:10158000a8fb070002002c00f3472400d9fb07004a
:101590000001be00000025003174240021fe070078
:1015a00010148000cf80de0015fb07000200200031
:1015b000832c24009bfb070002002c00f34724002f
:1015c000ccfb070011fc07008000eb00c9ff0700ff
:0c15d0004f0478000080fa0000000600c4
:020000040000fa
:0200000401f009
:04000000f3ff00000a
:020000040000fa
:0200000401f009
:04000400ff7f00007a
:020000040000fa
:0200000401f009
:04000800fcff0000f9
:020000040000fa
:0200000401f009
:04001400ffff0000ea
:020000040000fa
:10000800900b0000900b0000900b0000900b00007c
:10001800900b0000900b0000900b0000900b00006c
:10002800900b0000900b0000900b0000900b00005c
:10003800900b0000900b00007c040000900b000067
:10004800900b0000900b0000900b0000a204000031
:10005800900b0000900b0000900b0000900b00002c
:10006800900b0000900b0000900b0000900b00001c
:10007800900b0000900b0000900b0000900b00000c
:10008800900b0000900b0000900b0000900b0000fc
:10009800900b0000900b0000900b0000900b0000ec
:1000a800900b0000900b0000900b0000900b0000dc
:1000b800900b0000900b0000900b0000900b0000cc
:1000c800900b0000900b0000900b0000900b0000bc
:1000d800900b0000900b0000900b0000900b0000ac
:1000e800900b0000900b0000900b0000900b00009c
:0800f800900b0000900b0000ca
:020000040000fa
:10010800900b0000900b0000900b0000900b00007b
:10011800900b0000900b0000900b0000900b00006b
:10012800900b0000900b0000900b0000900b00005b
:10013800900b0000900b00007c040000900b000066
:10014800900b0000900b0000900b0000a204000030
:10015800900b0000900b0000900b0000900b00002b
:10016800900b0000900b0000900b0000900b00001b
:10017800900b0000900b0000900b0000900b00000b
:10018800900b0000900b0000900b0000900b0000fb
:10019800900b0000900b0000900b0000900b0000eb
:1001a800900b0000900b0000900b0000900b0000db
:1001b800900b0000900b0000900b0000900b0000cb
:1001c800900b0000900b0000900b0000900b0000bb
:1001d800900b0000900b0000900b0000900b0000ab
:1001e800900b0000900b0000900b0000900b00009b
:0801f800900b0000900b0000c9
:020000040000fa
:1015dc006f83200040002100000188000000000003
:1015ec00050007000c0007005a0402000000000070
:1015fc000040da000000fe004440a900000020007a
:10160c000000e0000300320000002000a001880070
:10161c004440a80000000600e0b6200001002000b5
:10162c001600370062004000e080480091018800fd
:10163c009001ba0062004000e080480091018800ef
:10164c009002ba0062004000e08048000002eb000b
:10165c006028e10005003a008301e900070033002f
:10166c00038009000059eb00040037006128e100f9
:10167c00010032000082eb00050007009101880098
:10168c001001ba000200e000e6ff3a00000005007d
:10169c00910188008002780062004000e0804800e0
:1016ac003559ba008301e900080032002559ba0007
:1016bc008301e900050032000400e000f4ff320071
:1016cc0015d9ba008301e900f1ff3a0000000600c9
:020000040000fa
:1016dc002c080000060000000200000000409c00e6
:1016ec004600000032080000040000000200000068
:1016fc0000000000000000002408000008000000aa
:10170c0002000000000000000000000000000000cb
:04171c0000000000c9
:020000040000fa
:041720000000fe00c7
:00000001FF
